:100D66001213E71213891213FD121166121439D2E7
:100D760097754400754501AF45E4FD1212D0AF45A5
:100D8600E4FD1213650545E54570020544C3940963
:100D9600E5446480948040DF121095E4FFFE7DAA4E
:100DA6007C42AB4DAA4CA94BA84A1205A8601E402E
:100DB6001CE54F6401454E7014F534753501C2AC1F
:100DC600208C06121260121095D28C80CEE4FFFEA3
:100DD6007DA07C42AB4DAA4CA94BA84A1205A8603F
:100DE6001B4019E54F454E7013F534F535C2AC205E
:100DF6008C06121260121095D28C809F308C307542
:100E06004400754501AF45E4FD1212D0AF45E4FD3F
:100E16001213650545E54570020544C39409E5448A
:100E26006480948040DFC28CD2ACE4F534F5351290
:050E36000C61020DA19A
:0A12F4000858303030303030303010
:1013E700759850758920758780758DFA758BFAD237
:0613F700ACD2AFD28E2241
:080003008F993099FDC299228A
:10000E00120653FF600C120003740129F9E43AFA48
:03001E0080EE224F
:03002300021226A0
:0B122600C0E0C0D075D000C000C007C1
:10123100C2CA30981FAF99EF640A60100557E5578D
:1012410070020556142458F8A607800675560075D5
:061251005700C298D2CA4A
:09125700D007D000D0D0D0E03265
:0514580012145DD2A496
:08145D007F017E02DEFEDFFAD2
:011465002264
:0F144900D2A5121458C2A512145DC2A402145DDC
:0A146600C2A5121458D2A502145DAD
:0211A800AD0791
:1011AA00E4FBFAEDC4131313540124FF92A5ED25B1
:1011BA00E0FD121458C2A412145D0BBB08E5D2A5B7
:1011CA0012145DD2A430A50F0AEAD394C840F6C21D
:0E11DA00A412145D7F0022C2A412145D7F01D6
:0111E80022E4
:10131B00E4FDFCD2A512145DD2A412145DEC25E001
:10132B00FCA2A5E433420412145DC2A412145D0D99
:05133B00BD08E5AF0450
:01134000228A
:1013CE008F468D471214497FD01211A8AF461211C5
:0913DE00A8AF471211A802146621
:0213AC008F3878
:1013AE001214497FD01211A8AF381211A812144985
:0F13BE007FD11211A812131B8F39121466AF3989
:0113CD0022FD
:101389007D077F191213CE7D067F1A1213CE7D18A1
:101399007F1B1213CE7D017F1C1213CEE4FD7F6BE0
:0313A9000213CE5E
:021341008F36E5
:101343001213AC8F37E53604FF1213ACAD07AF377A
:10135300EF3395E0EFFEED3395E0FCE42DFFEE3C3B
:01136300FE8B
:011364002266
:1009D6008B608A6189628C638D64AE63AF647C00D0
:1009E6007D0A1206D38E638F64C3E56364809480A8
:1009F600500FC3E49564F564E49563F563742D8044
:100A060008AB60AA61A962742012066CAE63AF647B
:100A1600EE3395E0FDFC7B407A42790F78001211A7
:100A260022AE02AF038E638F64EE3395E0FDFC7B4E
:100A3600A07A8679017800121122EF2430FFAB608C
:100A46000562E56270020561F9AA61EF12066CAEF5
:100A560063AF64EE3395E0FDFC7BA07A867901787E
:100A660000121122AE02AF038E638F647C277D10C5
:100A76001206D3EF2430FFAB600562E56270020513
:100A860061F9AA61EF12066CAE63AF647C277D1034
:100A96001206D38C638D64AE63AF647C037DE8126B
:100AA60006D3EF2430FFAB600562E5627002056194
:100AB600F9AA61EF12066CAE63AF647C037DE8129F
:100AC60006D38C638D64AE63AF647C007D641206CE
:100AD600D3EF2430FFAB600562E56270020561F971
:100AE600AA61EF12066CAE63AF647C007D641206E9
:100AF600D38C638D64AE63AF647C007D0A1206D32B
:100B0600EF2430FFAB600562E56270020561F9AA69
:100B160061EF12066CAE63AF647C007D0A1206D3E9
:100B26008C638D64E5642430FFAB600562E562701A
:0A0B3600020561F9AA61EF02066CE6
:021298008F368F
:10129A001213AC8F37E53604FF1213ACAD07AF3724
:1012AA00EF3395E0EFFEED3395E0FCE42DEE3CC321
:0E12BA00648094805004E4FEFF227E007F01D9
:0112C8002203
:1013FD0043C91075CDFC75CBFC75CC1875CA18D2C8
:06140D00ADD2AFD2CA22ED
:03002B00021016AA
:10101600C0E0C0F0C083C082C0D075D000C000C0A0
:0D10260001C002C003C004C005C006C00721
:10103300C2CF75CDFC75CBFC75CC1875CA180549A4
:10104300E5497002054864644548702B7F3B1213E1
:10105300417C007DB412067EAC06AD07E412061A8D
:101063008F4D8E4C8D4B8C4A7F3B1212988E4E8F38
:071073004F754800754900AC
:10107A00D007D006D005D004D003D002D001D000CA
:0B108A00D0D0D082D083D0F0D0E03274
:100F8E00001C221C00243E20003A2A2E002A2A3E53
:100F9E00000E083E002E2A3A003E2A3A0002023E79
:100FAE00003E2A3E002E2A3E38443800047C24009F
:100FBE0074545C007C5454007C1070005C547400BB
:100FCE005C547C007C4040007C547C007C5474005B
:100FDE000001000400060009000B001000120014AE
:100FEE0000160019001B001D001F00210024002602
:100FFE000028002A002C002E003100330035003767
:08100E000039003B003D000029
:1012FE00020A000102340000022E0001021C00004E
:0C130E000230000802320000020800005B
:10143900438901758CFC758A18D2A9D2AFC28C2256
:03000B0002002EC2
:10002E00C0E0C0F0C083C082C0D075D000C000C098
:0D003E0001C002C003C004C005C006C00719
:10004B00758CFC758A180513E5137002051264F4A0
:10005B007004E5126401600302058DE509653570D6
:10006B0004E5086534600C12126012109585340893
:10007B00853509E51D6401451C6038E51D640445A3
:10008B001C6030E51D6409451C6028E51D641045A6
:10009B001C6020E51D6419451C6018E51D64244592
:1000AB001C6010E51D6431451C6008E51D6440456E
:1000BB001C7006753000753108053BE53B70020579
:1000CB003AE53A600302035AE53B14B408004003D7
:1000DB0002035A9000EC75F003A4C58325F0C58389
:1000EB00730201040201290201810201D502022FD0
:1000FB000202890202E202033CC3E51D9440E51CA7
:10010B0064809480500AE52D4480FD7F081212D044
:10011B00E52DF4547FFD7F0812136502035AC3E5E6
:10012B001D9431E51C64809480500FE52B4440FDF9
:10013B007F071212D01212C9802B1211E9EF4E60F9
:10014B00121212C9852C42852D43AB2BAA2A7F078D
:10015B00120B401210DDEF4E600BAD1DAC1C7F403F
:10016B007E00120E3BE52DF44480FD7F08121365D3
:10017B0012109502035AC3E51D9424E51C64809468
:10018B00805014E5294420FD7F061212D0E52B5434
:10019B00BFFD7F070203571211E9EF4E6019E52BE4
:1001AB0054BFFD7F071212D0852A42852B43AB2902
:1001BB00AA287F06120B401210DDEF4E70030203CC
:1001CB005AAD1DAC1C7F20020335C3E51D9419E508
:1001DB001C648094805014E5274410FD7F05121297
:1001EB00D0E52954DFFD7F060203571211E9EF4ECC
:1001FB00601FE52954DFFD7F061212D0852842854A
:10020B002943AB27AA26AD1DAC1C7F057E00120B24
:10021B00461210DDEF4E700302035AAD1DAC1C7F6E
:10022B0010020335C3E51D9410E51C6480948050C7
:10023B0014E5254408FD7F041212D0E52754EFFD89
:10024B007F050203571211E9EF4E601FE52754EFAC
:10025B00FD7F051212D0852642852743AB25AA24A4
:10026B00AD1DAC1C7F047E00120B461210DDEF4E51
:10027B00700302035AAD1DAC1C7F08020335C3E5A6
:10028B001D9409E51C648094805014E5234404FDFF
:10029B007F031212D0E52554F7FD7F04020357129A
:1002AB0011E9EF4E601FE52554F7FD7F041212D0C4
:1002BB00852442852543AB23AA22AD1DAC1C7F03AD
:1002CB007E00120B461210DDEF4E700302035AAD87
:1002DB001DAC1C7F048053C3E51D9404E51C648096
:1002EB0094805013E5214402FD7F021212D0E523C6
:1002FB0054FBFD7F0380551211E9EF4E601FE52380
:10030B0054FBFD7F031212D0852242852343AB2180
:10031B00AA20AD1DAC1C7F027E00120B461210DD15
:10032B00EF4E602BAD1DAC1C7F027E00120E3B808E
:10033B001EC3E51D9401E51C6480948050117D0162
:10034B007F011212D0E52154FDFD7F021212D0E580
:10035B003B65317004E53A65306003020587D3E5F0
:10036B001D9401E51C648094804040E51D640445A8
:10037B001C6038E51D6409451C6030E51D641045A3
:10038B001C6028E51D6419451C6020E51D6424458F
:10039B001C6018E51D6431451C6010E51D6440456B
:1003AB001C60080533E53370020532051DE51D7031
:1003BB0002051CE53364024532700CF532F533E56A
:1003CB0031153170021530753A00753B001207E597
:1003DB00EF4E6012E51F25E0FFE51E33FEEF240113
:1003EB00F51FE43EF51E7D021207E7EF4E6012E5A6
:1003FB002125E0FFE52033FEEF2401F521E43EF556
:10040B00207D031207E7EF4E6012E52325E0FFE5A1
:10041B002233FEEF2401F523E43EF5227D0412077F
:10042B00E7EF4E6012E52525E0FFE52433FEEF24D0
:10043B0001F525E43EF5247D051207E7EF4E60122A
:10044B00E52725E0FFE52633FEEF2401F527E43E03
:10045B00F5267D061207E7EF4E6012E52925E0FF32
:10046B00E52833FEEF2401F529E43EF5287D07123C
:10047B0007E7EF4E6012E52B25E0FFE52A33FEEF91
:10048B002401F52BE43EF52A7D081207E7EF4E60B9
:10049B0012E52D25E0FFE52C33FEEF2401F52DE4CD
:1004AB003EF52C1207E5EF4E6012E50B25E0FFE55C
:1004BB000A33FEEF2401F50BE43EF50A7D02120729
:1004CB00E7EF4E6012E50D25E0FFE50C33FEEF2460
:1004DB0001F50DE43EF50C7D031207E7EF4E6012BC
:1004EB00E50F25E0FFE50E33FEEF2401F50FE43EAB
:1004FB00F50E7D041207E7EF4E6012E51125E0FFC4
:10050B00E51033FEEF2401F511E43EF5107D0512E5
:10051B0007E7EF4E6012E51525E0FFE51433FEEF1C
:10052B002401F515E43EF5147D061207E7EF4E6046
:10053B0012E51725E0FFE51633FEEF2401F517E46E
:10054B003EF5167D071207E7EF4E6012E51925E021
:10055B00FFE51833FEEF2401F519E43EF5187D088D
:10056B001207E7EF4E6012E51B25E0FFE51A33FE9D
:10057B00EF2401F51BE43EF51A121260751200759B
:02058B0013005B
:10058D00D007D006D005D004D003D002D001D000C2
:0B059D00D0D0D082D083D0F0D0E0326C
:10141300C2937E08C294EF339292EF25E0FFD294F9
:02142300DEF2F7
:0114250022A4
:10142600C2A17E08C2A2EF3392A0EF25E0FFD2A2AE
:02143600DEF2E4
:011438002291
:0712C900E52D547FFD7F08B5
:1012D000AC07E5354534700DC293121413AF0512F7
:1012E0001413D29322C2A1AF04121426AF05121414
:0412F00026D2A1223F
:10136500AC07E5354534700DC2A1121426AF051240
:101375001426D2A122C293AF04121413AF0512147E
:0413850013D29322CA
:10116600E4FD7F091212D07D037F0A1212D07D079B
:101176007F0B1212D07D017F0C1212D01D7F0F1231
:1011860012D07F091213657D037F0A1213657D074E
:101196007F0B1213657D017F0C1213651D7F0F02F5
:0211A6001365CF
:10126000AD1F7F011212D0AD217F021212D0AD232B
:101270007F031212D0AD257F041212D0AD277F0557
:101280001212D0AD297F061212D0AD2B7F07121299
:08129000D0AD2D7F080212D041
:10109500E50BF4FD7F01121365E50DF4FD7F0212EA
:1010A5001365E50FF4FD7F03121365E511F4FD7F6C
:1010B50004121365E515F4FD7F05121365E517F4B4
:1010C500FD7F06121365E519F4FD7F07121365E52B
:0810D5001BF4FD7F0802136506
:0807E5007D017C00AF1DAE1C7C
:1007ED00E4FBFAEC60030209CEED14B408004003FB
:1007FD000209CE90080E75F003A4C58325F0C583BC
:10080D007302082602085C0208920208C80208FE5C
:10081D00020934020966020998EF64014E6063EF24
:10082D0064024E605DEF64054E6057EF640A4E60E2
:10083D0051EF64114E604BEF641A4E6045EF642525
:10084D004E603FEF64324E60030209D10209C8EFDA
:10085D0064034E602DEF64044E6027EF64074E6015
:10086D0021EF640C4E601BEF64134E6015EF641C9A
:10087D004E600FEF64274E6009EF64344E60030243
:10088D0009D10209C8EF64064E602DEF64084E6071
:10089D0027EF64094E6021EF640E4E601BEF641567
:1008AD004E6015EF641E4E600FEF64294E6009EF28
:1008BD0064364E60030209D10209C8EF640B4E6025
:1008CD002DEF640D4E6027EF640F4E6021EF641025
:1008DD004E601BEF64174E6015EF64204E600FEFF6
:1008ED00642B4E6009EF64384E60030209D1020992
:1008FD00C8EF64124E602DEF64144E6027EF64163E
:10090D004E6021EF64184E601BEF64194E6015EFB9
:10091D0064224E600FEF642D4E6009EF643A4E6015
:10092D00030209D10209C8EF641B4E602AEF641D52
:10093D004E6024EF641F4E601EEF64214E6018EF71
:10094D0064234E6012EF64244E600CEF642F4E60F2
:10095D0006EF643C4E706D8062EF64264E602AEFA8
:10096D0064284E6024EF642A4E601EEF642C4E60A6
:10097D0018EF642E4E6012EF64304E600CEF643150
:10098D004E6006EF643E4E703B8030EF64334E6038
:10099D002AEF64354E6024EF64374E601EEF6439E4
:1009AD004E6018EF643B4E6012EF643D4E600CEFED
:1009BD00643F4E6006EF64404E70097A007B018003
:0809CD0003E4FAFBAE02AF03E4
:0109D50022FF
:0411E900AF1DAE1C6C
:0411ED008E3C8F3D68
:1011F100E4FDFCFBFAEB25E0FFEA33FE74DE2FF59C
:1012010082740F3EF583740193B53D09E493B53CB7
:10121100047C007D010BBB00010AEB641C4A70D504
:04122100AE04AF0563
:0112250022A6
:0410DD00AF1DAE1C79
:0410E1008E3C8F3D75
:1010E500E4FDFCFBFAEB25E0FFEA33FE74DE2FF5A9
:1010F50082740F3EF5837401932401FFE493340059
:10110500FEEFB53D08EEB53C047C007D010BBB0050
:0C111500010AEB641C4A70CDAE04AF056B
:0111210022AB
:060B4000AD1DAC1C7E009F
:100B46008E3C8F3D8D828C83C3E5829431E5836430
:100B5600809480401FE5829440E5836480948050B1
:100B660013EB4480FD1212D0E53D04FFE543547FAC
:100B7600FD1212D0C3E5829424E5836480948040FC
:100B860021E5829431E583648094805015AF3DEB76
:100B96004440FD1212D0E53D04FFE54354BFFD126B
:100BA60012D0C3E5829419E583648094804021E5E0
:100BB600829424E583648094805015AF3DEB4420F5
:100BC600FD1212D0E53D04FFE54354DFFD1212D0BD
:100BD600C3E5829410E583648094804021E5829485
:100BE60019E583648094805015AF3DEB4410FD12E7
:100BF60012D0E53D04FFE54354EFFD1212D0C3E5E4
:100C0600829409E583648094804021E5829410E50E
:100C160083648094805015AF3DEB4408FD1212D0DA
:100C2600E53D04FFE54354F7FD1212D0D3E5829467
:100C360003E583648094804021E5829409E583641A
:100C46008094805015AF3DEB4404FD1212D0E53D73
:0B0C560004FFE54354FBFD1212D02206
:100E3B00AB05AA048F828E83C3EB9431EA64809452
:100E4B00804013EB9440EA648094805009E52D4F69
:100E5B00FD7F081212D0C3EB9424EA648094804087
:100E6B0015EB9431EA64809480500BAF82E52B4FE5
:100E7B00FD7F071212D0C3EB9419EA648094804073
:100E8B0015EB9424EA64809480500BAF82E5294FD4
:100E9B00FD7F061212D0C3EB9410EA64809480405D
:100EAB0015EB9419EA64809480500BAF82E5274FC1
:100EBB00FD7F051212D0C3EB9409EA648094804045
:100ECB0015EB9410EA64809480500BAF82E5254FAC
:100EDB00FD7F041212D0D3EB9403EA64809480401C
:100EEB0015EB9409EA64809480500BAF82E5234F95
:070EFB00FD7F031212D0225B
:100C6100E55A643A6003020D657B01FAAF03C007E0
:100C7100AF58EF3395E0FEEF7802C333CE33CED8D1
:100C8100F924CDF582740E3EF583E5822BF582E5DC
:100C9100833AF583E493FDD0071213650BBB000182
:100CA1000AEB64054A70C57A007B05AF03C007AF44
:100CB10059EF3395E0FEEF7802C333CE33CED8F946
:100CC10024C9F582740E3EF583E5822BF582E58316
:100CD1003AF583E493FDD0071213650BBB00010ABB
:100CE100EB64094A70C57A007B05AF03C007AF5BAF
:100CF100EF3395E0FEEF7802C333CE33CED8F9243B
:100D0100F1F582740E3EF583E5822BF582E5833A97
:100D1100F583E493FDD0071212D00BBB00010AEB5F
:100D210064094A70C57A007B01AF03C007AF5CEF6D
:100D31003395E0FEEF7802C333CE33CED8F924F5F4
:100D4100F582740E3EF583E5822BF582E5833AF553
:100D510083E493FDD0071212D00BBB00010AEB64B0
:040D6100054A70C50A
:010D6500226B
:1005A80074F8CC6480CCC86480C8F582046043C306
:1005B800EB9FF5F0EA9E42F0E99D42F0E89C45F099
:1005C80060305018E5825FFFE582F42B5582FB50BE
:1005D800210ABA001D09B90019088016E5825BFBDB
:1005E800E582F42F5582FF50090EBE00050DBD00AF
:1005F800010CC3EB9FF5F0EA9E42F0E99D42F0E85A
:0D0608009C45F06007CC4820E701B3EC22D0
:1006150075F020800E75F010800575F0087D007E60
:10062500007F003392D530D503120709EC33401013
:10063500EF33FFEE33FEED33FDEC33FCD5F0ED2269
:0E064500E5F0247EA2D513CC92E7CDCEFF22A5
:03000000020F02EA
:0C0F0200787FE4F6D8FD758164020F4989
:10065300BB010689828A83E0225002E722BBFE02A5
:09066300E32289828A83E49322D8
:10066C00BB010689828A83F0225002F722BBFE016D
:02067C00F32267
:10067E00BC000BBE0029EF8DF084FFADF022E4CC60
:10068E00F875F008EF2FFFEE33FEEC33FCEE9DEC29
:10069E00984005FCEE9DFE0FD5F0E9E4CEFD22ED6F
:1006AE00F8F5F0EE8420D21CFEADF075F008EF2FB9
:1006BE00FFED33FD4007985006D5F0F222C398FDAA
:0506CE000FD5F0EA2247
:1006D300C2D5EC30E709B2D5E4C39DFDE49CFCEE42
:1006E30030E715B2D5E4C39FFFE49EFE12067EC336
:1006F300E49DFDE49CFC800312067E30D507C3E431
:060703009FFFE49EFE22B0
:10112200C2D5E830E70FB2D5E4C39BFBE49AFAE4F8
:1011320099F9E498F8EC30E717B2D5121158120772
:1011420053E4C39BFBE49AFAE499F9E498F8800328
:1011520012075330D50DE4C39FFFE49EFEE49DFDCC
:04116200E49CFC22EB
:0E070900C3E49FFFE49EFEE49DFDE49CFC2201
:100F0E00020D66E493A3F8E493A34003F68001F286
:100F1E0008DFF48029E493A3F85407240CC8C333E4
:100F2E00C4540F4420C8834004F456800146F6DFB3
:100F3E00E4800B01020408102040809012F4E47E3D
:100F4E00019360BCA3FF543F30E509541FFEE493A8
:100F5E00A360010ECF54C025E060A840B8E493A36F
:100F6E00FAE493A3F8E493A3C8C582C8CAC583CA9A
:100F7E00F0A3C8C582C8CAC583CADFE9DEE780BE52
:01131A0000D2
:1007170075F008758200EF2FFFEE33FECD33CDCC99
:1007270033CCC58233C5829BED9AEC99E58298401C
:100737000CF582EE9BFEED9AFDEC99FC0FD5F0D6F9
:10074700E4CEFBE4CDFAE4CCF9A88222B800C1B923
:100757000059BA002DEC8BF084CFCECDFCE5F0CB61
:10076700F97818EF2FFFEE33FEED33FDEC33FCEB9A
:1007770033FB10D703994004EB99FB0FD8E5E4F955
:10078700FA227818EF2FFFEE33FEED33FDEC33FC42
:10079700C933C910D7059BE99A4007EC9BFCE99A36
:1007A700F90FD8E0E4C9FAE4CCFB2275F010EF2F7B
:1007B700FFEE33FEED33FDCC33CCC833C810D7077B
:1007C7009BEC9AE899400AED9BFDEC9AFCE899F8B6
:0E07D7000FD5F0DAE4CDFBE4CCFAE4C8F92249
:00000001FF
